{
  "_format": "hh-sol-artifact-1",
  "contractName": "Ton",
  "sourceName": "contracts/Ton.sol",
  "abi": [
    {
      "inputs": [],
      "stateMutability": "nonpayable",
      "type": "constructor"
    },
    {
      "inputs": [
        {
          "internalType": "address",
          "name": "spender",
          "type": "address"
        },
        {
          "internalType": "uint256",
          "name": "allowance",
          "type": "uint256"
        },
        {
          "internalType": "uint256",
          "name": "needed",
          "type": "uint256"
        }
      ],
      "name": "ERC20InsufficientAllowance",
      "type": "error"
    },
    {
      "inputs": [
        {
          "internalType": "address",
          "name": "sender",
          "type": "address"
        },
        {
          "internalType": "uint256",
          "name": "balance",
          "type": "uint256"
        },
        {
          "internalType": "uint256",
          "name": "needed",
          "type": "uint256"
        }
      ],
      "name": "ERC20InsufficientBalance",
      "type": "error"
    },
    {
      "inputs": [
        {
          "internalType": "address",
          "name": "approver",
          "type": "address"
        }
      ],
      "name": "ERC20InvalidApprover",
      "type": "error"
    },
    {
      "inputs": [
        {
          "internalType": "address",
          "name": "receiver",
          "type": "address"
        }
      ],
      "name": "ERC20InvalidReceiver",
      "type": "error"
    },
    {
      "inputs": [
        {
          "internalType": "address",
          "name": "sender",
          "type": "address"
        }
      ],
      "name": "ERC20InvalidSender",
      "type": "error"
    },
    {
      "inputs": [
        {
          "internalType": "address",
          "name": "spender",
          "type": "address"
        }
      ],
      "name": "ERC20InvalidSpender",
      "type": "error"
    },
    {
      "inputs": [
        {
          "internalType": "address",
          "name": "owner",
          "type": "address"
        }
      ],
      "name": "OwnableInvalidOwner",
      "type": "error"
    },
    {
      "inputs": [
        {
          "internalType": "address",
          "name": "account",
          "type": "address"
        }
      ],
      "name": "OwnableUnauthorizedAccount",
      "type": "error"
    },
    {
      "anonymous": false,
      "inputs": [
        {
          "indexed": true,
          "internalType": "address",
          "name": "owner",
          "type": "address"
        },
        {
          "indexed": true,
          "internalType": "address",
          "name": "spender",
          "type": "address"
        },
        {
          "indexed": false,
          "internalType": "uint256",
          "name": "value",
          "type": "uint256"
        }
      ],
      "name": "Approval",
      "type": "event"
    },
    {
      "anonymous": false,
      "inputs": [
        {
          "indexed": true,
          "internalType": "address",
          "name": "previousOwner",
          "type": "address"
        },
        {
          "indexed": true,
          "internalType": "address",
          "name": "newOwner",
          "type": "address"
        }
      ],
      "name": "OwnershipTransferred",
      "type": "event"
    },
    {
      "anonymous": false,
      "inputs": [
        {
          "indexed": true,
          "internalType": "address",
          "name": "from",
          "type": "address"
        },
        {
          "indexed": true,
          "internalType": "address",
          "name": "to",
          "type": "address"
        },
        {
          "indexed": false,
          "internalType": "uint256",
          "name": "value",
          "type": "uint256"
        }
      ],
      "name": "Transfer",
      "type": "event"
    },
    {
      "inputs": [
        {
          "internalType": "address",
          "name": "owner",
          "type": "address"
        },
        {
          "internalType": "address",
          "name": "spender",
          "type": "address"
        }
      ],
      "name": "allowance",
      "outputs": [
        {
          "internalType": "uint256",
          "name": "",
          "type": "uint256"
        }
      ],
      "stateMutability": "view",
      "type": "function"
    },
    {
      "inputs": [
        {
          "internalType": "address",
          "name": "spender",
          "type": "address"
        },
        {
          "internalType": "uint256",
          "name": "value",
          "type": "uint256"
        }
      ],
      "name": "approve",
      "outputs": [
        {
          "internalType": "bool",
          "name": "",
          "type": "bool"
        }
      ],
      "stateMutability": "nonpayable",
      "type": "function"
    },
    {
      "inputs": [
        {
          "internalType": "address",
          "name": "account",
          "type": "address"
        }
      ],
      "name": "balanceOf",
      "outputs": [
        {
          "internalType": "uint256",
          "name": "",
          "type": "uint256"
        }
      ],
      "stateMutability": "view",
      "type": "function"
    },
    {
      "inputs": [
        {
          "internalType": "uint256",
          "name": "value",
          "type": "uint256"
        }
      ],
      "name": "burn",
      "outputs": [],
      "stateMutability": "nonpayable",
      "type": "function"
    },
    {
      "inputs": [
        {
          "internalType": "address",
          "name": "account",
          "type": "address"
        },
        {
          "internalType": "uint256",
          "name": "value",
          "type": "uint256"
        }
      ],
      "name": "burnFrom",
      "outputs": [],
      "stateMutability": "nonpayable",
      "type": "function"
    },
    {
      "inputs": [],
      "name": "decimals",
      "outputs": [
        {
          "internalType": "uint8",
          "name": "",
          "type": "uint8"
        }
      ],
      "stateMutability": "view",
      "type": "function"
    },
    {
      "inputs": [
        {
          "internalType": "address",
          "name": "to",
          "type": "address"
        },
        {
          "internalType": "uint256",
          "name": "amount",
          "type": "uint256"
        }
      ],
      "name": "mint",
      "outputs": [],
      "stateMutability": "nonpayable",
      "type": "function"
    },
    {
      "inputs": [],
      "name": "name",
      "outputs": [
        {
          "internalType": "string",
          "name": "",
          "type": "string"
        }
      ],
      "stateMutability": "view",
      "type": "function"
    },
    {
      "inputs": [],
      "name": "owner",
      "outputs": [
        {
          "internalType": "address",
          "name": "",
          "type": "address"
        }
      ],
      "stateMutability": "view",
      "type": "function"
    },
    {
      "inputs": [],
      "name": "renounceOwnership",
      "outputs": [],
      "stateMutability": "nonpayable",
      "type": "function"
    },
    {
      "inputs": [],
      "name": "symbol",
      "outputs": [
        {
          "internalType": "string",
          "name": "",
          "type": "string"
        }
      ],
      "stateMutability": "view",
      "type": "function"
    },
    {
      "inputs": [],
      "name": "totalSupply",
      "outputs": [
        {
          "internalType": "uint256",
          "name": "",
          "type": "uint256"
        }
      ],
      "stateMutability": "view",
      "type": "function"
    },
    {
      "inputs": [
        {
          "internalType": "address",
          "name": "to",
          "type": "address"
        },
        {
          "internalType": "uint256",
          "name": "value",
          "type": "uint256"
        }
      ],
      "name": "transfer",
      "outputs": [
        {
          "internalType": "bool",
          "name": "",
          "type": "bool"
        }
      ],
      "stateMutability": "nonpayable",
      "type": "function"
    },
    {
      "inputs": [
        {
          "internalType": "address",
          "name": "from",
          "type": "address"
        },
        {
          "internalType": "address",
          "name": "to",
          "type": "address"
        },
        {
          "internalType": "uint256",
          "name": "value",
          "type": "uint256"
        }
      ],
      "name": "transferFrom",
      "outputs": [
        {
          "internalType": "bool",
          "name": "",
          "type": "bool"
        }
      ],
      "stateMutability": "nonpayable",
      "type": "function"
    },
    {
      "inputs": [
        {
          "internalType": "address",
          "name": "newOwner",
          "type": "address"
        }
      ],
      "name": "transferOwnership",
      "outputs": [],
      "stateMutability": "nonpayable",
      "type": "function"
    }
  ],
  "bytecode": "0x60806040523480156200001157600080fd5b5033604051806040016040528060038152602001622a37b760e91b815250604051806040016040528060038152602001622a27a760e91b81525081600390816200005c919062000343565b5060046200006b828262000343565b5050506001600160a01b0381166200009e57604051631e4fbdf760e01b8152600060048201526024015b60405180910390fd5b620000a981620000d9565b50620000d333620000bd6012600a62000524565b620000cd906305f5e1006200053c565b6200012b565b6200056c565b600580546001600160a01b038381166001600160a01b0319831681179093556040519116919082907f8be0079c531659141344cd1fd0a4f28419497f9722a3daafe3b4186f6b6457e090600090a35050565b6001600160a01b038216620001575760405163ec442f0560e01b81526000600482015260240162000095565b620001656000838362000169565b5050565b6001600160a01b038316620001985780600260008282546200018c919062000556565b909155506200020c9050565b6001600160a01b03831660009081526020819052604090205481811015620001ed5760405163391434e360e21b81526001600160a01b0385166004820152602481018290526044810183905260640162000095565b6001600160a01b03841660009081526020819052604090209082900390555b6001600160a01b0382166200022a5760028054829003905562000249565b6001600160a01b03821660009081526020819052604090208054820190555b816001600160a01b0316836001600160a01b03167fddf252ad1be2c89b69c2b068fc378daa952ba7f163c4a11628f55a4df523b3ef836040516200028f91815260200190565b60405180910390a3505050565b634e487b7160e01b600052604160045260246000fd5b600181811c90821680620002c757607f821691505b602082108103620002e857634e487b7160e01b600052602260045260246000fd5b50919050565b601f8211156200033e576000816000526020600020601f850160051c81016020861015620003195750805b601f850160051c820191505b818110156200033a5782815560010162000325565b5050505b505050565b81516001600160401b038111156200035f576200035f6200029c565b6200037781620003708454620002b2565b84620002ee565b602080601f831160018114620003af5760008415620003965750858301515b600019600386901b1c1916600185901b1785556200033a565b600085815260208120601f198616915b82811015620003e057888601518255948401946001909101908401620003bf565b5085821015620003ff5787850151600019600388901b60f8161c191681555b5050505050600190811b01905550565b634e487b7160e01b600052601160045260246000fd5b600181815b80851115620004665781600019048211156200044a576200044a6200040f565b808516156200045857918102915b93841c93908002906200042a565b509250929050565b6000826200047f575060016200051e565b816200048e575060006200051e565b8160018114620004a75760028114620004b257620004d2565b60019150506200051e565b60ff841115620004c657620004c66200040f565b50506001821b6200051e565b5060208310610133831016604e8410600b8410161715620004f7575081810a6200051e565b62000503838362000425565b80600019048211156200051a576200051a6200040f565b0290505b92915050565b60006200053560ff8416836200046e565b9392505050565b80820281158282048414176200051e576200051e6200040f565b808201808211156200051e576200051e6200040f565b610a2d806200057c6000396000f3fe608060405234801561001057600080fd5b50600436106100f55760003560e01c806370a082311161009757806395d89b411161006657806395d89b41146101f6578063a9059cbb146101fe578063dd62ed3e14610211578063f2fde38b1461024a57600080fd5b806370a0823114610197578063715018a6146101c057806379cc6790146101c85780638da5cb5b146101db57600080fd5b806323b872dd116100d357806323b872dd1461014d578063313ce5671461016057806340c10f191461016f57806342966c681461018457600080fd5b806306fdde03146100fa578063095ea7b31461011857806318160ddd1461013b575b600080fd5b61010261025d565b60405161010f919061085d565b60405180910390f35b61012b6101263660046108c8565b6102ef565b604051901515815260200161010f565b6002545b60405190815260200161010f565b61012b61015b3660046108f2565b610309565b6040516012815260200161010f565b61018261017d3660046108c8565b61032d565b005b61018261019236600461092e565b610343565b61013f6101a5366004610947565b6001600160a01b031660009081526020819052604090205490565b610182610350565b6101826101d63660046108c8565b610364565b6005546040516001600160a01b03909116815260200161010f565b610102610379565b61012b61020c3660046108c8565b610388565b61013f61021f366004610969565b6001600160a01b03918216600090815260016020908152604080832093909416825291909152205490565b610182610258366004610947565b610396565b60606003805461026c9061099c565b80601f01602080910402602001604051908101604052809291908181526020018280546102989061099c565b80156102e55780601f106102ba576101008083540402835291602001916102e5565b820191906000526020600020905b8154815290600101906020018083116102c857829003601f168201915b5050505050905090565b6000336102fd8185856103ef565b60019150505b92915050565b600033610317858285610401565b610322858585610498565b506001949350505050565b6103356104f7565b61033f828261053d565b5050565b61034d3382610573565b50565b6103586104f7565b61036260006105a9565b565b61036f823383610401565b61033f8282610573565b60606004805461026c9061099c565b6000336102fd818585610498565b61039e6104f7565b6001600160a01b0381166103e6576040517f1e4fbdf7000000000000000000000000000000000000000000000000000000008152600060048201526024015b60405180910390fd5b61034d816105a9565b6103fc8383836001610613565b505050565b6001600160a01b0383811660009081526001602090815260408083209386168352929052205460001981146104925781811015610483576040517ffb8f41b20000000000000000000000000000000000000000000000000000000081526001600160a01b038416600482015260248101829052604481018390526064016103dd565b61049284848484036000610613565b50505050565b6001600160a01b0383166104c257604051634b637e8f60e11b8152600060048201526024016103dd565b6001600160a01b0382166104ec5760405163ec442f0560e01b8152600060048201526024016103dd565b6103fc83838361071a565b6005546001600160a01b03163314610362576040517f118cdaa70000000000000000000000000000000000000000000000000000000081523360048201526024016103dd565b6001600160a01b0382166105675760405163ec442f0560e01b8152600060048201526024016103dd565b61033f6000838361071a565b6001600160a01b03821661059d57604051634b637e8f60e11b8152600060048201526024016103dd565b61033f8260008361071a565b600580546001600160a01b038381167fffffffffffffffffffffffff0000000000000000000000000000000000000000831681179093556040519116919082907f8be0079c531659141344cd1fd0a4f28419497f9722a3daafe3b4186f6b6457e090600090a35050565b6001600160a01b038416610656576040517fe602df05000000000000000000000000000000000000000000000000000000008152600060048201526024016103dd565b6001600160a01b038316610699576040517f94280d62000000000000000000000000000000000000000000000000000000008152600060048201526024016103dd565b6001600160a01b038085166000908152600160209081526040808320938716835292905220829055801561049257826001600160a01b0316846001600160a01b03167f8c5be1e5ebec7d5bd14f71427d1e84f3dd0314c0f7b2291e5b200ac8c7c3b9258460405161070c91815260200190565b60405180910390a350505050565b6001600160a01b03831661074557806002600082825461073a91906109d6565b909155506107d09050565b6001600160a01b038316600090815260208190526040902054818110156107b1576040517fe450d38c0000000000000000000000000000000000000000000000000000000081526001600160a01b038516600482015260248101829052604481018390526064016103dd565b6001600160a01b03841660009081526020819052604090209082900390555b6001600160a01b0382166107ec5760028054829003905561080b565b6001600160a01b03821660009081526020819052604090208054820190555b816001600160a01b0316836001600160a01b03167fddf252ad1be2c89b69c2b068fc378daa952ba7f163c4a11628f55a4df523b3ef8360405161085091815260200190565b60405180910390a3505050565b60006020808352835180602085015260005b8181101561088b5785810183015185820160400152820161086f565b506000604082860101526040601f19601f8301168501019250505092915050565b80356001600160a01b03811681146108c357600080fd5b919050565b600080604083850312156108db57600080fd5b6108e4836108ac565b946020939093013593505050565b60008060006060848603121561090757600080fd5b610910846108ac565b925061091e602085016108ac565b9150604084013590509250925092565b60006020828403121561094057600080fd5b5035919050565b60006020828403121561095957600080fd5b610962826108ac565b9392505050565b6000806040838503121561097c57600080fd5b610985836108ac565b9150610993602084016108ac565b90509250929050565b600181811c908216806109b057607f821691505b6020821081036109d057634e487b7160e01b600052602260045260246000fd5b50919050565b8082018082111561030357634e487b7160e01b600052601160045260246000fdfea26469706673582212209660b170da4a0b9bfca16664245a51f2bd70d73dd871930254eebb0e7efb10e364736f6c63430008180033",
  "linkReferences": {},
  "deployedLinkReferences": {}
}