{
  "_format": "hh-sol-artifact-1",
  "contractName": "Uniswap",
  "sourceName": "contracts/Uniswap.sol",
  "abi": [
    {
      "inputs": [
        {
          "internalType": "address",
          "name": "owner",
          "type": "address"
        }
      ],
      "name": "OwnableInvalidOwner",
      "type": "error"
    },
    {
      "inputs": [
        {
          "internalType": "address",
          "name": "account",
          "type": "address"
        }
      ],
      "name": "OwnableUnauthorizedAccount",
      "type": "error"
    },
    {
      "anonymous": false,
      "inputs": [
        {
          "indexed": true,
          "internalType": "address",
          "name": "previousOwner",
          "type": "address"
        },
        {
          "indexed": true,
          "internalType": "address",
          "name": "newOwner",
          "type": "address"
        }
      ],
      "name": "OwnershipTransferred",
      "type": "event"
    },
    {
      "inputs": [
        {
          "internalType": "address",
          "name": "token",
          "type": "address"
        },
        {
          "internalType": "uint256",
          "name": "priceToken",
          "type": "uint256"
        }
      ],
      "name": "BuyTokenWithETH",
      "outputs": [
        {
          "internalType": "uint256",
          "name": "",
          "type": "uint256"
        }
      ],
      "stateMutability": "payable",
      "type": "function"
    },
    {
      "inputs": [],
      "name": "fee",
      "outputs": [
        {
          "internalType": "uint256",
          "name": "",
          "type": "uint256"
        }
      ],
      "stateMutability": "view",
      "type": "function"
    },
    {
      "inputs": [
        {
          "internalType": "address",
          "name": "token1",
          "type": "address"
        },
        {
          "internalType": "address",
          "name": "token2",
          "type": "address"
        },
        {
          "internalType": "uint256",
          "name": "priceToken1",
          "type": "uint256"
        },
        {
          "internalType": "uint256",
          "name": "priceToken2",
          "type": "uint256"
        },
        {
          "internalType": "uint256",
          "name": "amountOut",
          "type": "uint256"
        }
      ],
      "name": "getAmountIn",
      "outputs": [
        {
          "internalType": "uint256",
          "name": "",
          "type": "uint256"
        }
      ],
      "stateMutability": "view",
      "type": "function"
    },
    {
      "inputs": [
        {
          "internalType": "address",
          "name": "token",
          "type": "address"
        }
      ],
      "name": "getAmountInMax",
      "outputs": [
        {
          "internalType": "uint256",
          "name": "",
          "type": "uint256"
        }
      ],
      "stateMutability": "view",
      "type": "function"
    },
    {
      "inputs": [
        {
          "internalType": "address",
          "name": "token1",
          "type": "address"
        },
        {
          "internalType": "address",
          "name": "token2",
          "type": "address"
        },
        {
          "internalType": "uint256",
          "name": "priceToken1",
          "type": "uint256"
        },
        {
          "internalType": "uint256",
          "name": "priceToken2",
          "type": "uint256"
        },
        {
          "internalType": "uint256",
          "name": "amountIn",
          "type": "uint256"
        }
      ],
      "name": "getAmountOut",
      "outputs": [
        {
          "internalType": "uint256",
          "name": "",
          "type": "uint256"
        }
      ],
      "stateMutability": "view",
      "type": "function"
    },
    {
      "inputs": [
        {
          "internalType": "address",
          "name": "token",
          "type": "address"
        }
      ],
      "name": "getBalanceOfToken",
      "outputs": [
        {
          "internalType": "uint256",
          "name": "",
          "type": "uint256"
        }
      ],
      "stateMutability": "view",
      "type": "function"
    },
    {
      "inputs": [
        {
          "internalType": "address",
          "name": "token",
          "type": "address"
        },
        {
          "internalType": "uint256",
          "name": "amountOut",
          "type": "uint256"
        },
        {
          "internalType": "uint256",
          "name": "priceToken",
          "type": "uint256"
        }
      ],
      "name": "getEthAmountIn",
      "outputs": [
        {
          "internalType": "uint256",
          "name": "",
          "type": "uint256"
        }
      ],
      "stateMutability": "view",
      "type": "function"
    },
    {
      "inputs": [
        {
          "internalType": "address",
          "name": "token",
          "type": "address"
        },
        {
          "internalType": "uint256",
          "name": "amountIn",
          "type": "uint256"
        },
        {
          "internalType": "uint256",
          "name": "priceToken",
          "type": "uint256"
        }
      ],
      "name": "getEthAmountOut",
      "outputs": [
        {
          "internalType": "uint256",
          "name": "",
          "type": "uint256"
        }
      ],
      "stateMutability": "view",
      "type": "function"
    },
    {
      "inputs": [],
      "name": "owner",
      "outputs": [
        {
          "internalType": "address",
          "name": "",
          "type": "address"
        }
      ],
      "stateMutability": "view",
      "type": "function"
    },
    {
      "inputs": [],
      "name": "renounceOwnership",
      "outputs": [],
      "stateMutability": "nonpayable",
      "type": "function"
    },
    {
      "inputs": [
        {
          "internalType": "address",
          "name": "token1",
          "type": "address"
        },
        {
          "internalType": "address",
          "name": "token2",
          "type": "address"
        },
        {
          "internalType": "uint256",
          "name": "amountToken1",
          "type": "uint256"
        },
        {
          "internalType": "uint256",
          "name": "amountToken2",
          "type": "uint256"
        }
      ],
      "name": "swapToken",
      "outputs": [],
      "stateMutability": "nonpayable",
      "type": "function"
    },
    {
      "inputs": [
        {
          "internalType": "address",
          "name": "newOwner",
          "type": "address"
        }
      ],
      "name": "transferOwnership",
      "outputs": [],
      "stateMutability": "nonpayable",
      "type": "function"
    },
    {
      "inputs": [
        {
          "internalType": "address",
          "name": "token",
          "type": "address"
        },
        {
          "internalType": "address",
          "name": "receiver",
          "type": "address"
        },
        {
          "internalType": "uint256",
          "name": "amount",
          "type": "uint256"
        }
      ],
      "name": "transferToAddress",
      "outputs": [],
      "stateMutability": "nonpayable",
      "type": "function"
    },
    {
      "inputs": [],
      "name": "withdrawETH",
      "outputs": [],
      "stateMutability": "nonpayable",
      "type": "function"
    },
    {
      "inputs": [
        {
          "internalType": "address",
          "name": "tokenAddress",
          "type": "address"
        }
      ],
      "name": "withdrawTokens",
      "outputs": [],
      "stateMutability": "nonpayable",
      "type": "function"
    }
  ],
  "bytecode": "0x6080604052600260015534801561001557600080fd5b50338061003c57604051631e4fbdf760e01b81526000600482015260240160405180910390fd5b6100458161004b565b5061009b565b600080546001600160a01b038381166001600160a01b0319831681178455604051919092169283917f8be0079c531659141344cd1fd0a4f28419497f9722a3daafe3b4186f6b6457e09190a35050565b61162f806100aa6000396000f3fe6080604052600436106100e85760003560e01c80638b85d09d1161008a578063ddca3f4311610059578063ddca3f4314610252578063e086e5ec14610268578063f1dfeabe1461027d578063f2fde38b1461029d57600080fd5b80638b85d09d146101d75780638da5cb5b146101ea578063a60541c314610212578063cef496b11461023257600080fd5b806364a55e58116100c657806364a55e581461014f578063715018a614610182578063830684d61461019757806383786f8c146101b757600080fd5b806323dc210f146100ed57806337476ced1461010f57806349df728c1461012f575b600080fd5b3480156100f957600080fd5b5061010d610108366004611406565b6102bd565b005b34801561011b57600080fd5b5061010d61012a366004611442565b6105f3565b34801561013b57600080fd5b5061010d61014a366004611484565b610901565b34801561015b57600080fd5b5061016f61016a36600461149f565b610a1f565b6040519081526020015b60405180910390f35b34801561018e57600080fd5b5061010d610b16565b3480156101a357600080fd5b5061016f6101b2366004611484565b610b2a565b3480156101c357600080fd5b5061016f6101d2366004611484565b610bc8565b61016f6101e53660046114d2565b610c3c565b3480156101f657600080fd5b506000546040516001600160a01b039091168152602001610179565b34801561021e57600080fd5b5061016f61022d36600461149f565b610d31565b34801561023e57600080fd5b5061016f61024d3660046114fc565b610e28565b34801561025e57600080fd5b5061016f60015481565b34801561027457600080fd5b5061010d61105f565b34801561028957600080fd5b5061016f6102983660046114fc565b6110a4565b3480156102a957600080fd5b5061010d6102b8366004611484565b6112e8565b600081116103125760405162461bcd60e51b815260206004820152601f60248201527f416d6f756e74496e206d7573742062652067726561746572207468616e20300060448201526064015b60405180910390fd5b6040516370a0823160e01b81523360048201526000906001600160a01b038516906370a0823190602401602060405180830381865afa158015610359573d6000803e3d6000fd5b505050506040513d601f19601f8201168201806040525081019061037d9190611549565b90506000606460015460646103929190611578565b61039c908561158b565b6103a691906115a2565b905060006064600154856103ba919061158b565b6103c491906115a2565b90508282111561043b5760405162461bcd60e51b8152602060048201526024808201527f496e73756666696369656e7420746f6b656e2062616c616e636520616674657260448201527f20666565000000000000000000000000000000000000000000000000000000006064820152608401610309565b604051636eb1769f60e11b815233600482015230602482015284906001600160a01b0388169063dd62ed3e90604401602060405180830381865afa158015610487573d6000803e3d6000fd5b505050506040513d601f19601f820116820180604052508101906104ab9190611549565b10156104f95760405162461bcd60e51b815260206004820152601960248201527f4d75737420617070726f766520746f6b656e31206669727374000000000000006044820152606401610309565b6040516323b872dd60e01b81523360048201526001600160a01b038681166024830152604482018690528716906323b872dd906064016020604051808303816000875af115801561054e573d6000803e3d6000fd5b505050506040513d601f19601f8201168201806040525081019061057291906115c4565b506040516323b872dd60e01b8152336004820152306024820152604481018290526001600160a01b038716906323b872dd906064016020604051808303816000875af11580156105c6573d6000803e3d6000fd5b505050506040513d601f19601f820116820180604052508101906105ea91906115c4565b50505050505050565b6040516370a0823160e01b81523360048201526000906001600160a01b038616906370a0823190602401602060405180830381865afa15801561063a573d6000803e3d6000fd5b505050506040513d601f19601f8201168201806040525081019061065e9190611549565b9050808311156106bc5760405162461bcd60e51b815260206004820152602360248201527f596f757220746f6b656e312062616c616e636520697320696e73756666696369604482015262195b9d60ea1b6064820152608401610309565b604051636eb1769f60e11b815233600482015230602482015283906001600160a01b0387169063dd62ed3e90604401602060405180830381865afa158015610708573d6000803e3d6000fd5b505050506040513d601f19601f8201168201806040525081019061072c9190611549565b101561077a5760405162461bcd60e51b815260206004820152601960248201527f4d75737420617070726f766520746f6b656e31206669727374000000000000006044820152606401610309565b6040516323b872dd60e01b8152336004820152306024820152604481018490526001600160a01b038616906323b872dd906064016020604051808303816000875af11580156107cd573d6000803e3d6000fd5b505050506040513d601f19601f820116820180604052508101906107f191906115c4565b61083d5760405162461bcd60e51b815260206004820152601960248201527f5472616e73666572206f6620746f6b656e31206661696c6564000000000000006044820152606401610309565b60405163a9059cbb60e01b8152336004820152602481018390526001600160a01b0385169063a9059cbb906044016020604051808303816000875af115801561088a573d6000803e3d6000fd5b505050506040513d601f19601f820116820180604052508101906108ae91906115c4565b6108fa5760405162461bcd60e51b815260206004820152601960248201527f5472616e73666572206f6620746f6b656e32206661696c6564000000000000006044820152606401610309565b5050505050565b61090961133c565b806001600160a01b03811663a9059cbb61092b6000546001600160a01b031690565b6040516370a0823160e01b81523060048201526001600160a01b038516906370a0823190602401602060405180830381865afa15801561096f573d6000803e3d6000fd5b505050506040513d601f19601f820116820180604052508101906109939190611549565b6040517fffffffff0000000000000000000000000000000000000000000000000000000060e085901b1681526001600160a01b03909216600483015260248201526044016020604051808303816000875af11580156109f6573d6000803e3d6000fd5b505050506040513d601f19601f82011682018060405250810190610a1a91906115c4565b505050565b600080610a2c83856115a2565b610a3e90670de0b6b3a764000061158b565b6040516370a0823160e01b81523060048201529091506000906001600160a01b038716906370a0823190602401602060405180830381865afa158015610a88573d6000803e3d6000fd5b505050506040513d601f19601f82011682018060405250810190610aac9190611549565b905080821115610b0d5760405162461bcd60e51b815260206004820152602660248201527f496e73756666696369656e7420746f6b656e2062616c616e636520696e20636f6044820152651b9d1c9858dd60d21b6064820152608401610309565b50949350505050565b610b1e61133c565b610b286000611382565b565b6040516370a0823160e01b815233600482015260009081906001600160a01b038416906370a0823190602401602060405180830381865afa158015610b73573d6000803e3d6000fd5b505050506040513d601f19601f82011682018060405250810190610b979190611549565b9050600060646001546064610bac91906115e6565b610bb6908461158b565b610bc091906115a2565b949350505050565b6040516370a0823160e01b815233600482015260009081906001600160a01b038416906370a0823190602401602060405180830381865afa158015610c11573d6000803e3d6000fd5b505050506040513d601f19601f82011682018060405250810190610c359190611549565b9392505050565b600066038d7ea4c68000341015610c955760405162461bcd60e51b815260206004820152600e60248201527f4e6f7420656e6f756768206574680000000000000000000000000000000000006044820152606401610309565b6000610ca183346115a2565b610cb390670de0b6b3a764000061158b565b60405163a9059cbb60e01b8152336004820152602481018290529091506001600160a01b0385169063a9059cbb906044016020604051808303816000875af1158015610d03573d6000803e3d6000fd5b505050506040513d601f19601f82011682018060405250810190610d2791906115c4565b5090505b92915050565b6040516370a0823160e01b815230600482015260009081906001600160a01b038616906370a0823190602401602060405180830381865afa158015610d7a573d6000803e3d6000fd5b505050506040513d601f19601f82011682018060405250810190610d9e9190611549565b905080841115610dff5760405162461bcd60e51b815260206004820152602660248201527f496e73756666696369656e7420746f6b656e2062616c616e636520696e20636f6044820152651b9d1c9858dd60d21b6064820152608401610309565b6000670de0b6b3a7640000610e14858761158b565b610e1e91906115a2565b9695505050505050565b6000808211610e795760405162461bcd60e51b815260206004820152601f60248201527f416d6f756e74496e206d7573742062652067726561746572207468616e2030006044820152606401610309565b6040516370a0823160e01b81523360048201526000906001600160a01b038816906370a0823190602401602060405180830381865afa158015610ec0573d6000803e3d6000fd5b505050506040513d601f19601f82011682018060405250810190610ee49190611549565b905080831115610f425760405162461bcd60e51b815260206004820152602360248201527f596f757220746f6b656e312062616c616e636520697320696e73756666696369604482015262195b9d60ea1b6064820152608401610309565b600060646001546064610f5591906115e6565b610f5f908661158b565b610f6991906115a2565b9050600085610f78888461158b565b610f8291906115a2565b6040516370a0823160e01b81523060048201529091506000906001600160a01b038a16906370a0823190602401602060405180830381865afa158015610fcc573d6000803e3d6000fd5b505050506040513d601f19601f82011682018060405250810190610ff09190611549565b9050808211156110525760405162461bcd60e51b815260206004820152602760248201527f496e73756666696369656e7420746f6b656e322062616c616e636520696e20636044820152661bdb9d1c9858dd60ca1b6064820152608401610309565b5098975050505050505050565b61106761133c565b600080546040516001600160a01b03909116914780156108fc02929091818181858888f193505050501580156110a1573d6000803e3d6000fd5b50565b60008082116110f55760405162461bcd60e51b815260206004820181905260248201527f416d6f756e744f7574206d7573742062652067726561746572207468616e20306044820152606401610309565b6040516370a0823160e01b81523060048201526000906001600160a01b038716906370a0823190602401602060405180830381865afa15801561113c573d6000803e3d6000fd5b505050506040513d601f19601f820116820180604052508101906111609190611549565b9050808311156111c25760405162461bcd60e51b815260206004820152602760248201527f496e73756666696369656e7420746f6b656e322062616c616e636520696e20636044820152661bdb9d1c9858dd60ca1b6064820152608401610309565b6000856111cf868661158b565b6111d991906115a2565b90506000606460015460646111ee9190611578565b6111f8908461158b565b61120291906115a2565b6040516370a0823160e01b81523360048201529091506000906001600160a01b038b16906370a0823190602401602060405180830381865afa15801561124c573d6000803e3d6000fd5b505050506040513d601f19601f820116820180604052508101906112709190611549565b9050808211156110525760405162461bcd60e51b815260206004820152602560248201527f496e73756666696369656e7420746f6b656e312062616c616e6365206166746560448201527f72206665650000000000000000000000000000000000000000000000000000006064820152608401610309565b6112f061133c565b6001600160a01b038116611333576040517f1e4fbdf700000000000000000000000000000000000000000000000000000000815260006004820152602401610309565b6110a181611382565b6000546001600160a01b03163314610b28576040517f118cdaa7000000000000000000000000000000000000000000000000000000008152336004820152602401610309565b600080546001600160a01b038381167fffffffffffffffffffffffff0000000000000000000000000000000000000000831681178455604051919092169283917f8be0079c531659141344cd1fd0a4f28419497f9722a3daafe3b4186f6b6457e09190a35050565b80356001600160a01b038116811461140157600080fd5b919050565b60008060006060848603121561141b57600080fd5b611424846113ea565b9250611432602085016113ea565b9150604084013590509250925092565b6000806000806080858703121561145857600080fd5b611461856113ea565b935061146f602086016113ea565b93969395505050506040820135916060013590565b60006020828403121561149657600080fd5b610c35826113ea565b6000806000606084860312156114b457600080fd5b6114bd846113ea565b95602085013595506040909401359392505050565b600080604083850312156114e557600080fd5b6114ee836113ea565b946020939093013593505050565b600080600080600060a0868803121561151457600080fd5b61151d866113ea565b945061152b602087016113ea565b94979496505050506040830135926060810135926080909101359150565b60006020828403121561155b57600080fd5b5051919050565b634e487b7160e01b600052601160045260246000fd5b80820180821115610d2b57610d2b611562565b8082028115828204841417610d2b57610d2b611562565b6000826115bf57634e487b7160e01b600052601260045260246000fd5b500490565b6000602082840312156115d657600080fd5b81518015158114610c3557600080fd5b81810381811115610d2b57610d2b61156256fea26469706673582212201db2f3a970fe2e4f9fa0a2db8160f1587e4579c31ad895cd8c4c3a7412dd03dd64736f6c63430008180033",
  "linkReferences": {},
  "deployedLinkReferences": {}
}